:020000040800F2
:1000000000000220890200081503000815030008FB
:100010001503000815030008150300080000000080
:100020001503000815030008000000001503000870
:100030001503000815030008150300081503000840
:100040001503000815030008150300081503000830
:100050001503000815030008150300081503000820
:100060001503000815030008150300081503000810
:100070001503000815030008150300081503000800
:1000800015030008150300081503000815030008F0
:1000900015030008150300081503000815030008E0
:1000A00015030008150300081503000815030008D0
:1000B00015030008150300081503000815030008C0
:1000C00015030008150300081503000815030008B0
:1000D00015030008150300081503000815030008A0
:1000E0001503000815030008150300081503000890
:1000F0001503000815030008150300081503000880
:10010000150300081503000815030008150300086F
:10011000150300081503000815030008150300085F
:10012000150300081503000800000000000000008F
:10013000150300081503000815030008150300083F
:10014000150300081503000815030008150300082F
:10015000150300081503000815030008150300081F
:10016000150300081503000815030008150300080F
:10017000000000000000000015030008000000005F
:10018000000000001503000800000000000000004F
:10019000150300080000000000000000000000003F
:1001A00015030008150300081503000815030008CF
:1001B000150300081503000810B5054C237833B962
:1001C000044B13B10448AFF300800123237010BD2A
:1001D0006C00002000000000D81A000808B5034B8E
:1001E0001BB103490348AFF3008008BD00000000C5
:1001F00070000020D81A0008A3F5803A704700BFAD
:10020000174B002B08BF134B9D46FFF7F5FF00214E
:100210008B460F461348144A121A01F092F90E4BFE
:10022000002B00D098470D4B002B00D098470020A2
:10023000002104000D000D48002802D00C48AFF347
:10024000008001F029FA2000290000F013F800F0E6
:10025000D9FF00BF000008000000000000000000FF
:10026000000000006C000020E801002000000000F9
:100270000000000080B500AF00F092F900F062FAD3
:1002800000F094F900BFF9E780B586B000AF1C4BD1
:100290007B611C4B3B611C4A194BD31A7B600023CA
:1002A000FB600CE03B691A687B691A607B69043368
:1002B0007B613B6904333B61FB680133FB60FA6897
:1002C0007B689A42EED3114B7B61114A0F4BD31AD4
:1002D0009B107B600023BB6008E07B6900221A60F2
:1002E0007B6904337B61BB680133BB60BA687B68A0
:1002F0009A42F2D3FFF7BEFF00BF1837BD4680BD5C
:1003000000000020E01A00086C0000206C000020B3
:10031000E801002080B400AF00BFFDE780B400AF6B
:1003200000BFBD465DF8047B704780B400AF012379
:100330001846BD465DF8047B704780B582B000AFBB
:100340007860396001F0A2F9034616221A604FF076
:10035000FF3318460837BD4680BD80B582B000AF78
:1003600078604FF0FF317868FFF7E7FF00BFFDE7E7
:1003700080B586B000AFF860B9607A6000237B6119
:100380000AE0AFF300800146BB685A1CBA60CAB2EB
:100390001A707B6901337B617A697B689A42F0DB72
:1003A0007B6818461837BD4680BD80B586B000AF63
:1003B000F860B9607A6000237B6109E0BB685A1C71
:1003C000BA601B781846AFF300807B6901337B610C
:1003D0007A697B689A42F1DB7B6818461837BD461C
:1003E00080BD80B483B000AF78604FF0FF33184613
:1003F0000C37BD465DF8047B704780B483B000AF16
:10040000786039603B684FF400525A600023184608
:100410000C37BD465DF8047B704780B483B000AFF5
:100420007860012318460C37BD465DF8047B7047A1
:1004300080B485B000AFF860B9607A6000231846D8
:100440001437BD465DF8047B70470EB480B482B0AB
:1004500000AF78604FF0FF3318460837BD465DF8AF
:10046000047B03B0704780B582B000AF786001F0C4
:100470000DF903460A221A604FF0FF331846083779
:10048000BD4680BD80B582B000AF786001F0FEF857
:10049000034602221A604FF0FF3318460837BD4664
:1004A00080BD80B483B000AF78604FF0FF33184652
:1004B0000C37BD465DF8047B704780B483B000AF55
:1004C000786039603B684FF400525A600023184648
:1004D0000C37BD465DF8047B704780B582B000AF35
:1004E0007860396001F0D2F803461F221A604FF09D
:1004F000FF3318460837BD4680BD80B500AF01F018
:10050000C5F803460B221A604FF0FF33184680BD32
:1005100080B584B000AFF860B9607A6001F0B6F8D9
:1005200003460C221A604FF0FF3318461037BD46C1
:1005300080BD000080B586B000AF7860144A154BCE
:10054000D31A7B617B693B61134B1B68002B02D183
:10055000114B124A1A60104B1A687B6813443A69AF
:100560009A4207D201F092F803460C221A604FF02B
:10057000FF3309E0084B1B68FB60074B1A687B6878
:100580001344054A1360FB6818461837BD4680BD02
:10059000FFFFFFFF000400008C000020E8010020A6
:1005A00080B500AF00F01AFA00BF80BD80B500AF83
:1005B00000F01AFA00BF80BD80B500AF0F4B0022DB
:1005C0001A700E4B01225A700C4B00229A700B4B82
:1005D0000022DA70094B01221A71084B07225A7166
:1005E000064B01229A71054B0522DA71034B93E801
:1005F000030000F00FFC00BF80BD00BF9000002092
:1006000080B584B000AF3B1D83E806000346FB7352
:10061000FB7B1A463B1D93E8030000F0E8FC08480A
:1006200000F0BAFC00223B1D93E8030000F0DFFC61
:10063000034800F0B1FC00BF1037BD4680BD00BFCD
:10064000A086010080B582B000AF00F0A3FD034694
:10065000FB7000237B600BE0094A7B6813441B7826
:10066000FA789A4201D1FB7806E07B6801337B601F
:100670007B68042BF0DD002318460837BD4680BD9B
:100680000800002080B500AF012000F0A4FD00BFED
:1006900080BD80B487B000AF78600B46FB701F232D
:1006A000FB75FB787A689A4204D2002344E0FB7D14
:1006B000013BFB75FB7D012202FA03F31A467B68BE
:1006C0001340002BF3D0FB7D073BBB75BB7DFF22A6
:1006D0009A407B681A40BB7D22FA03F3FB60FB78EB
:1006E0003B6120E0FB78FA6853403B6113E0BB7D3F
:1006F000013BBB753B695A00BB7D012101FA03F345
:1007000019467B681940BB7D21FA03F313433B6113
:100710003B697F2B03D8BB7D002BE8D100E000BFF5
:100720003B69DBB2FB60FB687F2BDBD83B69002BAE
:100730000CBF01230023DBB218461C37BD465DF811
:10074000047B704780B58AB000AF0023FB7500239F
:1007500087F823306FF07F433B61FFF773FF034659
:10076000FB73FB7B032B70D1012000F034FD0023D1
:10077000FB610BE000F00EFD0346D9B23A46FB697F
:1007800013440A461A70FB690133FB61FB69012BB4
:10079000F0DD3B781B027A7813437B62012000F086
:1007A0001AFD7B6A2C4AA2FB03235B087B6246E0AE
:1007B0000023BB610BE000F0EDFC0346D9B23A46E2
:1007C000BB6913440A461A70BB690133BB61BB693C
:1007D000032BF0DD3B781A067B781B041A43BB78A9
:1007E0001B021343FA781343BB60AA21B868FFF7D2
:1007F00050FF0346FB71FB79012B17D1BB68DB0966
:10080000BB6000233B7000237B70BB68DBB2BB7016
:10081000FB79002B0CBF01230023DBB25AB297F9FE
:10082000233013435BB287F8233002E00F2000F03F
:10083000D2FC7B6A013B7B62012000F0CCFC7B6A2E
:10084000002BB5D10123BB7302E00F2000F0C3FCE5
:1008500000BF2837BD4680BDABAAAAAA80B400AFAE
:100860005A4B5B4A5A60594B5A4A5A6000BF574B21
:100870001B69002BFBDB00BF544BDB6803F48033A8
:10088000002BF9D1514B1B69504A23F4407313617B
:100890004E4B4E4A1B69136100BF4C4BDB6803F49F
:1008A0008033002BF9D1494B1B69484A43F00203BE
:1008B0001361464B1B69454A23F078031361434B90
:1008C0001B69424A43F038031361404B1B693F4A9E
:1008D00043F48033136100BF3C4BDB6803F4803387
:1008E000002BF9D1394B1B69384A23F002031361FD
:1008F000364B1B69354A23F078031361334B1B6970
:10090000324A43F001031361334B22221A7000BFB5
:100910002E4BDB6803F48033002BF9D12B4B1B6982
:100920002A4A23F00103136100BF284BDB6803F45C
:100930008033002BF9D1254B1B6803F40073002B87
:1009400011D0224B1B68214A23F4007313601F4B04
:100950001B681E4A43F4006313601C4B1B681B4A50
:1009600043F400731360194B1B6803F48063002B7E
:1009700011D0164B1B68154A23F480631360134B88
:100980001B68124A43F480531360104B1B680F4AD4
:1009900043F48063136000BF0C4BDB6803F48033C7
:1009A000002BF9D1094B1B69084A43F0004313613E
:1009B00000BF064BDB6803F48033002BF9D100BF86
:1009C00000BFBD465DF8047B704700BF003C02409D
:1009D00023016745AB89EFCD0000060880B500AF65
:1009E00000F05CFB00BF80BD80B586B000AFFFF7B4
:1009F00029FE0346FB73FB7B022B41D1FFF742FE2E
:100A000000237B610BE000F0C5FB0346D9B23A46F8
:100A10007B6913440A461A707B6901337B617B69E9
:100A2000032BF0DD3B781A467B781B021A43BB7818
:100A30001B041A43FB781B061343BB60BB680122EF
:100A40001A70BB68013302221A70BB68023303229A
:100A50001A70BB68033304221A7000233B610BE059
:100A60003A69BB6813441B78FB71FB79184600F0A8
:100A7000B2FB3B6901333B613B69032BF0DD05E0D1
:100A80000F23BB73BB7B184600F0A5FB00BF1837D4
:100A9000BD4680BD80B400AF5A4B5B4A5A60594B8B
:100AA0005A4A5A6000BF574B1B69002BFBDB00BF43
:100AB000544BDB6803F48033002BF9D1514B1B6995
:100AC000504A23F4407313614E4B4E4A1B69136125
:100AD00000BF4C4BDB6803F48033002BF9D1494B4A
:100AE0001B69484A43F002031361464B1B69454AA0
:100AF00023F078031361434B1B69424A43F03803E8
:100B00001361404B1B693F4A43F48033136100BFBC
:100B10003C4BDB6803F48033002BF9D1394B1B6964
:100B2000384A23F002031361364B1B69354A23F020
:100B300078031361334B1B69324A43F0010313619D
:100B4000334B22221A7000BF2E4BDB6803F4803334
:100B5000002BF9D12B4B1B692A4A23F001031361A7
:100B600000BF284BDB6803F48033002BF9D1254B01
:100B70001B6803F40073002B11D0224B1B68214A21
:100B800023F4007313601F4B1B681E4A43F4006379
:100B900013601C4B1B681B4A43F400731360194B12
:100BA0001B6803F48063002B11D0164B1B68154A99
:100BB00023F480631360134B1B68124A43F4805381
:100BC0001360104B1B680F4A43F48063136000BF2F
:100BD0000C4BDB6803F48033002BF9D1094B1B6904
:100BE000084A43F00043136100BF064BDB6803F47F
:100BF0008033002BF9D100BF00BFBD465DF8047BF8
:100C0000704700BF003C024023016745AB89EFCD30
:100C10000000060880B483B000AF03460A46FB71AB
:100C20001346BB71BB79012B4ED1FB79072B00F228
:100C3000A58001A252F823F0590C0008670C0008A7
:100C4000750C0008830C0008910C00089F0C00082C
:100C5000AD0C0008BB0C00084B4B1B6B4A4A43F021
:100C6000010313638AE0484B1B6B474A43F00203BE
:100C7000136383E0444B1B6B434A43F00403136349
:100C80007CE0414B1B6B404A43F00803136375E063
:100C90003D4B1B6B3C4A43F0100313636EE03A4B31
:100CA0001B6B394A43F02003136367E0364B1B6B21
:100CB000354A43F04003136360E0334B1B6B324A09
:100CC00043F08003136359E0BB79002B56D1FB79C5
:100CD000072B53D801A252F823F000BFFD0C0008E7
:100CE0000D0D00081D0D00082D0D00083D0D00081C
:100CF0004D0D00085D0D00086D0D0008224B1B69AD
:100D000003F00103204ADB43136137E01E4B1B69EC
:100D100003F002031C4ADB4313612FE01A4B1B69EB
:100D200003F00403184ADB43136127E0164B1B69E9
:100D300003F00803144ADB4313611FE0124B1B69E5
:100D400003F01003104ADB43136117E00E4B1B69DD
:100D500003F020030C4ADB4313610FE00A4B1B69CD
:100D600003F04003084ADB43136107E0064B1B69AD
:100D700003F08003044ADB43136100BF00BF0C375C
:100D8000BD465DF8047B70470038024080B483B0F4
:100D900000AF0346FB71FB79072B23D801A252F861
:100DA00023F000BFC50D0008C90D0008CD0D0008D7
:100DB000D10D0008D50D0008D90D0008DD0D000883
:100DC000E10D00080B4B0EE00B4B0CE00B4B0AE067
:100DD0000B4B08E00B4B06E00B4B04E00B4B02E027
:100DE0000B4B00E0002318460C37BD465DF8047B32
:100DF000704700BF0000024000A0024000400340D6
:100E000000E00340008004400020054000C0054091
:100E10000060064080B584B000AF3B4683E8030025
:100E20000023FB603B78BA7911461846FFF7F2FEC3
:100E30003B781846FFF7AAFFB860BB681B68FA79D1
:100E40005200032101FA02F2D2431A40BB681A6031
:100E5000BB681B687A781146FA79520001FA02F2EF
:100E60001A43BB681A600023FB60FB781A46FB79C3
:100E70005B0002FA03F31A46FB681343FB60BB688E
:100E80009B68FA795200032101FA02F2D2431A4018
:100E9000BB689A60BB689A68FB681A43BB689A6033
:100EA0000023FB603B791A46FB795B0002FA03F3EF
:100EB0001A46FB681343FB60BB68DB68FA79520093
:100EC000032101FA02F2D2431A40BB68DA60BB6820
:100ED000DA68FB681A43BB68DA600023FB60BB7802
:100EE0001A46FB795B0002FA03F31A46FB681343C8
:100EF000FB60BB685B68FA79114601228A40D243E5
:100F00001A40BB685A60BB685A68FB681A43BB68E2
:100F10005A60FB79072B1CD80023FB607B791A46AB
:100F2000FB799B0002FA03F31A46FB681343FB604C
:100F3000BB681B6AFA7911460F228A40D2431A40D5
:100F4000BB681A62BB681A6AFB681A43BB681A62FC
:100F50001EE0FB79072B1BD90023FB607B791A4627
:100F6000FB799B0002FA03F31A46FB681343FB600C
:100F7000BB685B6AFA7911460F228A40D2431A4055
:100F8000BB685A62BB685A6AFB681A43BB685A62FC
:100F900000BF1037BD4680BD80B483B000AF0346AC
:100FA000FB8002E0FB88013BFB80FB88002BF9D132
:100FB00000BF00BF0C37BD465DF8047B704780B4AE
:100FC00085B000AF78600B46FB700023FB737B6835
:100FD0001A69FB7822FA03F3DBB203F00103FB7317
:100FE000FB7B18461437BD465DF8047B704780B51F
:100FF00086B000AF07F1080383E803001346FB71D6
:101000003B7A1846FFF7C2FE7861FB79012B11D1BC
:101010007B695B69FA7B114601228A40D2431A4000
:101020007B695A617B695B69FA79F97B8A401A436B
:101030007B695A61FB79002B11D17B695B69FA7B73
:10104000114601228A40D2431A407B695A617B696A
:101050005B69FA79F97B8A401A437B695A6100BF60
:1010600018461837BD4680BD80B400AF054B1B6CD9
:10107000044A43F40033136400BFBD465DF8047BAB
:10108000704700BF0038024080B400AF024B1846E2
:10109000BD465DF8047B70470044004080B588B0D1
:1010A00000AF00233B7502237B750023BB75002333
:1010B000FB7501233B7607237B760123BB76022356
:1010C000FB7600233B7302237B730023BB73002357
:1010D000FB7301233B7407237B740123BB7403233D
:1010E000FB7400233B7000237B704FF416537B602E
:1010F000274BBB603B7DBA7E11461846FFF78AFD41
:101100003B7BBA7C11461846FFF784FDFFF7ACFF26
:1011100007F1140393E80300FFF77CFE07F10C03CB
:1011200093E80300FFF776FEFFF7AEFFF861FB6977
:1011300040F283629A60FB6942F20C02DA603B780B
:10114000002B11D0FB691B6943F40062FB691A6133
:10115000FB691B6923F48062FB691A61FB691B69E7
:1011600023F40072FB691A617B78002B0BD0FB69BA
:101170005B6943F48072FB695A61FB695B6943F404
:101180000072FB695A6100BF2037BD4680BD00BFB9
:1011900040A5AE0280B582B000AFFFF775FF786062
:1011A00000BF7B681B6803F02003002BF9D07B682D
:1011B000DB6803F48053002B06D07B685B689BB22E
:1011C000C3F308039BB202E07B685B68DBB218469E
:1011D0000837BD4680BD80B584B000AF0346FB71C3
:1011E000FFF752FFF86000BFFB681B6803F0800345
:1011F000002BF9D0FA79FB685A6000BF1037BD4662
:1012000080BD000008B5064B044613B10021AFF3C2
:101210000080044B1B6803B198472046FFF79DF8F8
:1012200000000000D0010020002310B50446C0E9F2
:101230000033C0E90433836081814366C2818361E6
:10124000194608225C3000F07CF90D4B63620D4BAF
:10125000A3620D4BE3620D4B23630D4B24629C4252
:1012600006D003F16802944202D0D0339C4205D1EB
:1012700004F15800BDE8104000F033BA10BD00BFC3
:10128000B9140008DF140008171500083B15000802
:1012900098000020024A0349034800F0EFB800BF5D
:1012A00010000020F11900082000002041680C4BBC
:1012B000994210B5044601D000F09AFBA168094B91
:1012C000994202D0204600F093FBE168064B994218
:1012D00004D02046BDE8104000F08ABB10BD00BF1E
:1012E00098000020000100206801002008B54B6E26
:1012F000DA0705D48B899B0502D4886D00F0F5F9D7
:10130000002008BD08B54B6EDA0705D48B899B0514
:1013100002D4886D00F0EFF9002008BD10B50B4B2A
:101320000B4C0C4A1A60204600220421FFF77CFF78
:1013300004F1680001220921FFF776FF04F1D000D3
:101340000222BDE810401221FFF76EBFD00100203D
:101350009800002095120008014800F0C6B900BFAF
:10136000DF010020014800F0C6B900BFDF01002006
:10137000F8B50746FFF7F0FF234B1B680BB9FFF7E3
:10138000CDFF224ED6E90134013B0FD53568002D43
:1013900037D14FF4D671384600F01AFA044628BB0C
:1013A0003060FFF7DFFF0C233B601BE0B4F90C500B
:1013B000D5B9174BE36004F15800656600F091F968
:1013C000FFF7D0FFC4E90155C4E904552560A561C4
:1013D0000822294604F15C0000F0B3F8C4E90D5579
:1013E000C4E912552046F8BD6834CDE704230560F2
:1013F00043600C30A0604FF4D072294600F0A1F891
:1014000034603668BEE700BFD00100201000002025
:101410000100FFFF10B50446FFF79EFF236A1BB1D2
:10142000BDE81040FFF79EBF044B2362044B1B68CE
:10143000002BF5D1FFF772FFF2E700BFAD120008F5
:10144000D001002008B5FFF787FFBDE80840024A39
:101450000249002000F012B810000020ED12000830
:1014600008B5044A0449002000F008F8BDE8084027
:10147000FFF778BF10000020051300082DE9F8439E
:101480000746884614460026D4E90195B9F10109BA
:1014900005D52468002CF7D13046BDE8F883AB8928
:1014A000012B07D9B5F90E30013303D02946384650
:1014B000C04706436835E9E710B50C46B1F90E1090
:1014C00000F0C0F80028ABBF636DA3891B1823F49C
:1014D0008053ACBF6365A38110BD002070472DE928
:1014E000F0411F468B89DB0505460C46164605D59F
:1014F000B1F90E100223002200F092F8A389B4F98A
:101500000E1023F48053A38132463B462846BDE8A3
:10151000F04100F0A9B810B50C46B1F90E1000F07A
:101520007FF8431CA38915BF606523F4805343F4FF
:101530008053A38118BFA38110BDB1F90E1000F034
:1015400009B802440346934200D1704703F8011BD7
:10155000F9E7000038B5064D0023044608462B6025
:10156000FEF73FFF431C02D12B6803B1236038BD57
:10157000D4010020294B1B68834270B504464BD030
:10158000C369ABB1DB686BB10025E369DB6859590E
:1015900000293BD10435802DF7D1E3692046D96875
:1015A00000F0AAF8E369196811B1204600F0A4F828
:1015B000616911B1204600F09FF8E16911B1204640
:1015C00000F09AF8216B11B1204600F095F8616B9C
:1015D00011B1204600F090F8A16B11B1204600F047
:1015E0008BF8A16C11B1204600F086F8616C11B146
:1015F000204600F081F8E16A11B1204600F07CF845
:10160000236A4BB12046BDE8704018470E6820465B
:1016100000F072F83146BBE770BD00BF1C0000202F
:1016200038B5074D04460846114600222A601A467E
:10163000FEF7FEFE431C02D12B6803B1236038BDC8
:10164000D401002038B5074D044608461146002253
:101650002A601A46FEF78CFE431C02D12B6803B1A8
:10166000236038BDD401002038B5074D0446084634
:10167000114600222A601A46FEF797FE431C02D14B
:101680002B6803B1236038BDD4010020014B1868DA
:10169000704700BF1C00002070B50D4D0D4C641B41
:1016A000A4100026A64209D10B4D0C4C00F010FAF4
:1016B000641BA4100026A64205D170BD55F8043B5A
:1016C00098470136EEE755F8043B98470136F2E7B4
:1016D000000000000000000000000000000000000A
:1016E00070477047704770477047704701207047D8
:1016F000012070477047704738B50546002941D032
:1017000051F8043C0C1F002BB8BFE41800F0E0F8BF
:101710001D4A136833B9636014602846BDE8384039
:1017200000F0DCB8A34208D9206821188B4201BF21
:1017300019685B6809182160EDE71A465B680BB110
:10174000A342FAD911685018A0420BD12068014475
:10175000501883421160E0D118685B6853600844F8
:101760001060DAE702D90C232B60D6E72068211835
:101770008B4204BF19685B68636004BF091821606D
:101780005460CAE738BD00BFE401002070B50F4EB9
:101790000C463168054611B900F066F93060214603
:1017A000284600F061F9431C03D14FF0FF34204676
:1017B00070BDC41C24F00304A042F8D0211A2846AE
:1017C00000F052F90130F2D1EFE700BFE001002054
:1017D0002DE9F843CD1C25F0030508350C2D38BF45
:1017E0000C25002D064601DBA94204D90C233360E9
:1017F0000020BDE8F883DFF8D48000F069F8D8F85D
:1018000000301C4644BB29463046FFF7BFFF431C4F
:10181000044658D1D8F800402746002F43D1002C69
:101820004BD023683946304604EB030900F01CF91D
:10183000814542D121686D1A29463046FFF7A6FF3F
:1018400001303AD023682B442360D8F800305A681E
:1018500062BBC8F800700FE02268521B20D40B2A2C
:1018600017D96119A342256018BF5960636808BF82
:10187000C8F8001062514B60304600F02FF804F1B8
:101880000B00231D20F00700C21A1CBF1B1AA35017
:10189000AFE76268A3420CBFC8F800205A60EBE7CC
:1018A00023466468AEE73C467F68B6E71A465B6845
:1018B000A342FBD100235360DEE70C2333603046A4
:1018C00000F00CF894E70560D6E700BFE4010020C3
:1018D0000148FFF70ABF00BFDC0100200148FFF705
:1018E0000ABF00BFDC010020B1F90C202DE9F04156
:1018F000160705460C4654D44B68002B02DC0B6CD3
:10190000002B48DDE66A002E45D0002312F48052F9
:101910002F68216A2B6030D0626DA389590705D5E5
:101920006368D21A636B0BB1236CD21A0023E66A88
:10193000216A2846B047431CA38906D129681D297E
:101940002BD82A4A0A41D60727D400226260D9043C
:101950002269226004D5421C01D12B6803B960655D
:10196000616B2F60B9B104F14403994202D028465B
:10197000FFF7C2FE002363630DE001232846B04752
:101980000246501CC9D12B68002BC6D01D2B01D09C
:10199000162B1ED12F60002022E043F040031BB223
:1019A0001BE00F69002FF6D093070E6808BF4B6944
:1019B0000F6018BF0023A6EB07088B60B8F1000F7B
:1019C000E9DD216AA66A43463A462846B047002820
:1019D00008DCB4F90C3043F04003A3814FF0FF3032
:1019E000BDE8F0810744A8EB0008E7E7FEFFBFDF92
:1019F00038B50B6905460C4613B90025284638BD95
:101A000018B1036A0BB9FFF705FDB4F90C30002BD0
:101A1000F3D0626ED00704D4990502D4A06DFFF70D
:101A200064FE28462146FFF75FFF636EDA0705462E
:101A3000E4D4A3899B05E1D4A06DFFF75CFEDDE74C
:101A4000014620B9044A05490548FFF717BD054B73
:101A50001868FFF7CDBF00BF10000020F119000883
:101A6000200000201C00002038B5064D002304464D
:101A700008462B60FEF75EFD431C02D12B6803B1C4
:101A8000236038BDD40100203D400B40104026406B
:101A900035400340064014400E400D4025401240A2
:101AA00028400240184009400A4000003D400B40D9
:101AB0001040264035400340064014400E400D4083
:101AC0002540124028400240184009400A400000CA
:041AD000F8B500BFA6
:041AD400F8B500BFA2
:081AD80020E7FF7F0100000080
:101AE0000000000088000020020304050000000040
:101AF00000000000030000009800002020000020EB
:101B00000000000098000020000100206801002073
:101B100000000000000000000000000000000000C5
:101B200000000000000000000000000000000000B5
:101B300000000000000000000000000000000000A5
:0C1B400000000000000000000000000099
:040000050800028964
:00000001FF
